:020000040800F2
:1000000000000320CD30000815310008153100082C
:1000100015310008153100081531000800000000F6
:100020000000000000000000000000001531000882
:1000300015310008000000001531000815310008D6
:100040001531000815310008153100081531000878
:100050001531000815310008153100081531000868
:100060001531000815310008153100081531000858
:100070001531000815310008153100081531000848
:100080001531000815310008153100081531000838
:100090001531000815310008153100081531000828
:1000A0001531000815310008153100081531000818
:1000B0001531000815310008153100081531000808
:1000C00015310008153100081531000815310008F8
:1000D00015310008153100081531000815310008E8
:1000E00015310008153100081531000815310008D8
:1000F00015310008153100081531000815310008C8
:1001000015310008153100081531000815310008B7
:1001100015310008153100081531000815310008A7
:100120001531000815310008153100081531000897
:100130001531000815310008153100081531000887
:100140001531000815310008153100081531000877
:100150001531000815310008153100081531000867
:100160001531000815310008153100081531000857
:100170001531000815310008153100081531000847
:100180001531000815310008153100081531000837
:100190001531000815310008153100081531000827
:0C01A00015310008153100081531000869
:1001AC0010B5054C237833B9044B13B10448AFF3A5
:1001BC0000800123237010BD6804002000000000A3
:1001CC0018310008084B10B51BB108480849AFF3AB
:1001DC0000800848036803B910BD074B002BFBD007
:1001EC00BDE81040184700BF00000000183100089F
:1001FC006C040020680400200000000010B582B0E0
:10020C0001F0DEFD012001F003FE01F009FE254B9B
:10021C0018701C78E4B2012C1AD07F20012101F057
:10022C007FFF214B214A1B68A2FB03235B09013B87
:10023C00B3F1807F00D3FEE71D4A1E485360F024C3
:10024C000021072380F823409160136002B010BD99
:10025C00204602F03DF9022002F034F9002001F0B2
:10026C0087FE002001F098FE4FF4805001F08AFECA
:10027C00042300934FF480000821C022022301F0D4
:10028C000FFE204601F01EFE392002F009F800286E
:10029C00FAD0022001F05AFE01F062FE0828FBD1D0
:1002AC00BBE700BF00000020140000201F85EB51AD
:1002BC0010E000E000ED00E00C4B0D4A1B68A2FBC7
:1002CC0003235B09013BB3F1807F00D3FEE7094AAE
:1002DC00094810B4F0245360002180F82340072310
:1002EC0091605DF8044B1360704700BF1400002050
:1002FC001F85EB5110E000E000ED00E082B0044AF5
:10030C000190019B13601368002BFCD102B0704765
:10031C0094040020034B1A6812B11A68013A1A604F
:10032C00704700BF94040020014B01221A607047F3
:10033C008404002000B583B000F0C8FC032000F05A
:10034C002DFD00224BF223738DE80C0041208221FD
:10035C00024A034B00F0CEFDFEE700BFC05A000876
:10036C00200000203C493D4BD1F888203C4842F409
:10037C007002C1F888201A68002142F001021A604C
:10038C0099601A6822F0847222F480321A605860E4
:10039C001A6882B022F480221A60D960009101910F
:1003AC001A6842F480321A601A4603E0009BB3F5D7
:1003BC00A04F09D0136803F400330193009B013361
:1003CC000093019B002BF1D0244B1B6813F40033DA
:1003DC0018BF01230193019B012B05D01E4B4FF03D
:1003EC0000629A6002B070471C4B1E481A6C1E4982
:1003FC0042F080521A64026842F4404202609A68E9
:10040C009A609A6842F400429A609A6842F4A05248
:10041C009A609A6842F4C0029A609A6842F0E0626C
:10042C009A6059601A6842F080721A6019680B4A17
:10043C008901FBD50D4B40F203611960936823F0E1
:10044C0003039360936843F002039360936803F093
:10045C000C03082BFAD1C1E700ED00E00038024094
:10046C001030002400700040083C4008003C024062
:10047C001848836803F00C03042B28D0082B09D0F0
:10048C00154B144A15499268C2F303128A5CD34087
:10049C000B6170474368416813F4800F436818BFC1
:1004AC000F4801F03F020CBF0B49B0FBF2F1C3F354
:1004BC00881308BFB1FBF2F101FB03F2054B5B683B
:1004CC00C3F3014301335B00B2FBF3F3D9E7044BF5
:1004DC00D7E700BF003802400024F40004000020DD
:1004EC0000127A0010B5012082B0014601F018FE0E
:1004FC004FF48071022301220024009109488DF8E9
:10050C00053069468DF804308DF807208DF80640CB
:10051C0001F0A8FB21464FF4800001F003FD02B06E
:10052C0010BD00BF0000024010B5102082B00121A8
:10053C0001F0F6FD08210122022300910024064857
:10054C008DF8044069468DF807208DF8053001F0D0
:10055C0089FB02B010BD00BF0010024000B54FF483
:10056C00C06083B001F04AFF4FF4C06001F046FF59
:10057C0001230921002201A88DF804108DF8052013
:10058C008DF806308DF8073001F042FF03B05DF8AE
:10059C0004FB00BF10B5032182B0042002F094FCD0
:1005AC0008240022012368468DF804208DF80630BB
:1005BC0000948DF8054001F0B3FE204601F0F6FEE4
:1005CC0002B010BD38B504460D4600F003F94220C8
:1005DC0000F050F988B1642000F0B8F9204600F022
:1005EC0049F950B1642000F0B1F9284600F042F905
:1005FC0018B100F00BF9012038BD00F007F900200C
:10060C0038BD00BF38B504460D4600F0E3F8422073
:10061C0000F030F9E8B1642000F098F9204600F0C1
:10062C0029F9B0B100F0F2F8642000F08FF900F075
:10063C00D1F8432000F01EF958B1642000F086F97F
:10064C0000F058F9287000F0F9F800F0DFF80120FC
:10065C0038BD00F0DBF8002038BD00BF30B583B0EA
:10066C00FFF740FFFFF760FF00F062F880231946A8
:10067C0012208DF80730FFF7A5FF10B9002003B04A
:10068C0030BD0A20FFF73AFE0B200DF10701FFF7F2
:10069C00B9FF0028F2D09DF80730732B02D001204F
:1006AC0003B030BD064C04F5A77520786178FFF7D0
:1006BC0089FF02340028E1D0AC42F6D1EFE700BF4D
:1006CC003031000810B5202082B0012101F028FD46
:1006DC003E21002302220091012407488DF804409A
:1006EC0069468DF806308DF807308DF8052001F03D
:1006FC00B9FA02B010BD00BF0014024000B50820CA
:10070C0083B0012101F00CFD4FF47F410023022244
:10071C00009106488DF8043069468DF807308DF845
:10072C00052001F09FFA03B05DF804FB000C0240B9
:10073C0010B5082082B0012101F0F2FC1421002335
:10074C0002220091012407488DF8044069468DF877
:10075C0006308DF807308DF8052001F083FA02B0D1
:10076C0010BD00BF000C024010B5082082B0012162
:10077C0001F0D6FC1021002302220091012407482D
:10078C008DF8044069468DF806308DF807308DF8E9
:10079C00052001F067FA02B010BD00BF000C02404A
:1007AC0010B5082082B0012101F0BAFC1021012201
:1007BC0002230091002406488DF8044069468DF808
:1007CC0007208DF8053001F04DFA02B010BD00BFC6
:1007DC00000C024070B50C4C1026042566834FF4B7
:1007EC00FA7000F0B3F865834FF4FA7000F0AEF8CD
:1007FC0026834FF4FA7000F0A9F825834FF4FA70B1
:10080C00BDE8704000F0A2B8000C024038B50A4CAC
:10081C00102525834FF4FA7000F098F804236383B5
:10082C004FF4FA7000F092F865834FF4FA70BDE85B
:10083C00384000F08BB800BF000C024070B50C4C77
:10084C001025042665834FF4FA7000F07FF8668358
:10085C004FF4FA7000F07AF826834FF4FA7000F037
:10086C0075F825834FF4FA70BDE8704000F06EB84F
:10087C00000C02402DE9F8431D4E814600244FF038
:10088C00100809FA04F31B064CBFA6F81A80A6F848
:10089C0018804FF4FA70042500F058F84FF4FA70F1
:1008AC00758300F053F8013435834FF4FA7000F07F
:1008BC004DF8082C0E4FE4D1642000F047F8FFF7F8
:1008CC006FFF4FF4FA7000F041F87D83642000F064
:1008DC003DF83C693D834FF4FA7000F037F8FFF7B0
:1008EC0043FF84F01000C0F30010BDE8F88300BF94
:1008FC00000C0240F8B5FFF753FF4FF4FA7000F00C
:10090C0025F8114E0825002404274FF4FA7000F046
:10091C001DF84FF4FA70778300F018F833693783B9
:10092C006400DB06E4B248BF01344FF4FA7048BFF0
:10093C00E4B200F00BF86B1E13F0FF05E5D1FFF7E6
:10094C0013FF2046F8BD00BF000C0240704700BFEB
:10095C0038B50A4C05464FF40051094801F00EFA1F
:10096C002046042101F00AFA2946064800F01EFD33
:10097C0020460421BDE8384001F0FEB900080240D1
:10098C00000C02400050014038B50A4C05464FF4AB
:10099C000051094801F0F0F92046042101F0EEF96C
:1009AC002946064800F002FD20460421BDE83840E7
:1009BC0001F0E2B900080240000C02400050014076
:1009CC0010B59348934C4FF4805101F0D5F90120A8
:1009DC00FFF7BEFF013CFDD1CB20FFF7B9FF39205B
:1009EC00FFF7D2FF2C20FFF7CFFF2046FFF7CCFFFD
:1009FC003420FFF7C9FF0220FFF7C6FFCF20FFF717
:100A0C00A7FF2046FFF7C0FFC120FFF7BDFF302036
:100A1C00FFF7BAFFE820FFF79BFF8520FFF7B4FF35
:100A2C002046FFF7B1FF7820FFF7AEFFEA20FFF773
:100A3C008FFF2046FFF7A8FF2046FFF7A5FFED200C
:100A4C00FFF786FF6420FFF79FFF0320FFF79CFF53
:100A5C001220FFF799FF8120FFF796FFF720FFF791
:100A6C0077FF2020FFF790FFC020FFF771FF2320B6
:100A7C00FFF78AFFC120FFF76BFF1020FFF784FF01
:100A8C00C520FFF765FF3E20FFF77EFF2820FFF70C
:100A9C007BFFC720FFF75CFF8620FFF775FF362032
:100AAC00FFF756FF4820FFF76FFF3A20FFF750FF84
:100ABC005520FFF769FFB120FFF74AFF2046FFF7EB
:100ACC0063FF1820FFF760FFB620FFF741FF0820F7
:100ADC00FFF75AFF8220FFF757FF2720FFF754FF3D
:100AEC00F220FFF735FF2046FFF74EFF2A20FFF7D5
:100AFC002FFF2046FFF748FF2046FFF745FF204613
:100B0C00FFF742FFEF20FFF73FFF2B20FFF720FFFF
:100B1C002046FFF739FF2046FFF736FF0120FFF78D
:100B2C0033FF3F20FFF730FF2620FFF711FF012096
:100B3C00FFF72AFFE020FFF70BFF0F20FFF724FF42
:100B4C003120FFF721FF2B20FFF71EFF0C20FFF7B2
:100B5C001BFF0E20FFF718FF0820FFF715FF4E2094
:100B6C00FFF712FFF120FFF70FFF3720FFF70CFF05
:100B7C000720FFF709FF1020FFF706FF0320FFF700
:100B8C0003FF0E20FFF700FF0920FFF7FDFE2046B4
:100B9C00FFF7FAFEE120FFF7DBFE2046FFF7F4FE3D
:100BAC000E20FFF7F1FE1420FFF7EEFE0320FFF7F7
:100BBC00EBFE1120FFF7E8FE0720FFF7E5FE3120E2
:100BCC00FFF7E2FEC120FFF7DFFE4820FFF7DCFE57
:100BDC000820FFF7D9FE0F20FFF7D6FE0C20FFF7F9
:100BEC00D3FE3120FFF7D0FE3620FFF7CDFE0F20CD
:100BFC00FFF7CAFE1120FFF7ABFE074B013BFDD1FF
:100C0C002920FFF7A5FE2C20FFF7A2FE10BD00BF88
:100C1C00000C024080841E0040420F00F8B50746CD
:100C2C002A200D4616461C46FFF792FE380AFFF79F
:100C3C00ABFEF8B2FFF7A8FE300AFFF7A5FEF0B244
:100C4C00FFF7A2FE2B20FFF783FE280AFFF79CFE7E
:100C5C00E8B2FFF799FE200AFFF796FEE0B2BDE876
:100C6C00F840FFF791BE00BF10B50B461446024684
:100C7C00FFF7D4FF2C20FFF76BFEC4F30720FFF720
:100C8C0083FEE0B2BDE81040FFF77EBE0E4B1A8823
:100C9C005B8870B5013A0546013B0020014692B2D3
:100CAC009BB2FFF7BBFF2C20FFF752FEC5F30726C4
:100CBC004FF49634EDB23046FFF766FE2846FFF748
:100CCC0063FE013CF7D170BD9C0400202DE9F0417E
:100CDC00DFF8AC80254F82B00820012101F020FA0A
:100CEC0001244FF40052022300254046694600922D
:100CFC008DF805308DF804408DF806508DF80750AE
:100D0C0000F0B0FF2146042001F00AFA04266946DF
:100D1C003846009600F0A6FF2146082001F000FAA4
:100D2C004FF480534046694600938DF8074000F01D
:100D3C0099FF3846314601F01FF829460C480D4EF4
:100D4C0000F0B0FEFFF73CFE0B4A0C4B1580F02177
:100D5C004FF4A0724FF6FF7035801C7119805A80C9
:100D6C00FFF794FF02B0BDE8F08100BF000802401D
:100D7C000050014098040020A20400209C04002094
:100D8C00000C024082B00190019B2BB1019B013BF6
:100D9C000193019B002BF9D102B0704710B50446AA
:100DAC003620FFF7D5FD74B1012C1CD0022C1ED0BF
:100DBC00032C14D0104B4FF4A070F021002218809B
:100DCC0059801A7110BD5820FFF7DEFD0A4BF02038
:100DDC004FF4A0710122188059801A7110BDE820BF
:100DEC00FFF7D2FDE6E78820FFF7CEFDEEE72820DF
:100DFC00FFF7CAFDDEE700BF9C04002010B44C785E
:100E0C001C80037801303BB10C78002310F8011BD7
:100E1C0023449BB20029F9D113805DF8044B704731
:100E2C002DE9F04FDFF8C480DFF8C4902E4CA8F801
:100E3C000000A9F800100D461978248883B04718D3
:100E4C00A742DDF830A00D9E9B4644DC5C788646BC
:100E5C00002C3AD0A2F1200301930027019BDBF870
:100E6C00042003FB047432F8145049B3002412E03C
:100E7C00002E0EEB040009DBB9F80010394480B2E7
:100E8C0089B23246FFF7F0FEB8F800E09BF800108C
:100E9C000134A14214D905FA04F21304E8D5B9F8C7
:100EAC0000100EEB0400394489B280B25246FFF7B1
:100EBC00DBFE9BF80010B8F800E00134A142EAD840
:100ECC009BF801400137BC42C8D87144A8F8001007
:100EDC0003B0BDE8F08F5C784FF0000E2544A9F804
:100EEC000050A8F800E0B3E79C0400209804002010
:100EFC00A20400202DE9F04F83B0DFF868B0184D44
:100F0C00DDF830800D9F2980814614461E46ABF8D3
:100F1C0000004FF0000A227882B10A2A11D00D2A63
:100F2C0033461BD00134BBF800002988CDF8008073
:100F3C000197FFF775FF2278002AEED103B0BDE8C8
:100F4C00F08F2B887278013313442B8063780D2B30
:100F5C0006BFABF800A00134ABF800900134DAE71F
:100F6C00A2040020980400202DE9F04F464F3D8844
:100F7C0085B08542044698BF05F1FF34039398BFB2
:100F8C00A4B27B88954298BF05F1FF35164698BFF1
:100F9C00AEB2039A8B4298BF03F1FF3C8B4698BFCD
:100FAC001FFA8CFB934202D8013B9BB20393B442D1
:100FBC0010D2C4EB06081FFA88F30193039B9B45E0
:100FCC0057D2039B4FF0010ACBEB0305ADB2CDF822
:100FDC0008A00EE0C6EB04081FFA88F30193039BEC
:100FEC009B453DD2CBEB03050123ADB24FF6FF7A07
:100FFC000293BDF904700FFA85F94F4529DD07EB13
:10100C00D773C3F34F087F4259460E9A2046FFF719
:10101C002BFEB4420FFA88F2C5EB080304EB0A016D
:10102C0011D0BA42C8BF1FFA83F8019BC8BF8CB25B
:10103C004A4508EB0302029B5B44E5DA1FFA82F88F
:10104C001FFA83FBE0E703988345EAD105B0BDE8BE
:10105C00F08F09EBD9735B105B421FFA83F8D2E770
:10106C00039B4FF6FF7AC3EB0B05ADB2CDF808A08E
:10107C00BFE7039BC3EB0B054FF6FF73ADB24FF00D
:10108C00010A0293B5E700BF9C0400202DE9F04152
:10109C0082B01D46089C0094074688460B461646AF
:1010AC00FFF762FF384641463A462B460094FFF75D
:1010BC005BFF4146304632462B460094FFF754FF07
:1010CC003846324629462B46089402B0BDE8F0411A
:1010DC00FFF74ABF2DE9F04182B099420C461D46FC
:1010EC0080461746089E0AD22146234601340096B4
:1010FC0040463A46A4B2FFF737FFA542F4D802B0F7
:10110C00BDE8F0812DE9F04F93461FFA8BF889B0BA
:10111C001E468AB2C8EBC8331FFA80FA08EB0201EC
:10112C005B009BB21446009289B250463246039340
:10113C00FFF79AFDC8EB040189B250463246FFF71F
:10114C0093FD08EB0A0080B221463246FFF78CFD76
:10115C00C8EB0A0080B221463246C8F10105FFF700
:10116C0083FDBBF1000FADB27BDD0AF101020692EB
:10117C000AF1FF320492621C0792621E0023059250
:10118C00069A03999CB204EB020C1FFA8CFC15F422
:10119C00004F6046324603F1010301F102010AD10E
:1011AC0089B20BF1FF3B0D440FFA8BFB89B2ADB248
:1011BC0003911FFA8BF80293009BCDF804C008EB47
:1011CC000307BFB23946FFF74FFD049AC4EB02097F
:1011DC001FFA89F9394648463246FFF745FD009B10
:1011EC00DDF804C0C8EB0307BFB26046394632468F
:1011FC00FFF73AFD484639463246FFF735FD079B67
:10120C0008EB0A0704EB03091FFA89F9BFB2494638
:10121C0038463246FFF728FDC8EB0A0C1FFA8CFC47
:10122C00604649463246CDF804C0FFF71DFD059BCC
:10123C00C4EB03091FFA89F9384649463246FFF7D1
:10124C0013FDDDF804C005EB440501346046494646
:10125C00324624B2FFF708FD0335A345ADB2029B1D
:10126C008EDC09B0BDE8F08F2DE9F04F1FFA82F843
:10127C001FFA81FB9A46C8EBC8338BB086B25B0071
:10128C0008EB0B019CB23046914689B2524605964A
:10129C000494FFF7E9FC08EB0604C8EB0B0130469D
:1012AC0089B25246A4B23746C8EB0606FFF7DCFCFF
:1012BC00B6B2204659465246FFF7D6FC3046594640
:1012CC005246FFF7D1FC30462246CDF800A05946D5
:1012DC005B46C8F10105FFF747FEB9F1000FADB24F
:1012EC0061DD7B1E06937B1C08930BF101030993B4
:1012FC000BF1FF334FF0000C0793069B1FFA8CF495
:10130C001E1B089BE718049BB6B2BFB215F4004F26
:10131C0030463A460CF1010C03F102030AD19BB2A0
:10132C0009F1FF391D440FFA89F99BB2ADB2049350
:10133C001FFA89F808EB0B0189B20B46CDF800A017
:10134C00CDF80CC0FFF710FEC8EB0B0189B2384684
:10135C0032460B46CDF800A0FFF706FE059A099B16
:10136C00CDF800A0E11808EB0207C8EB020689B221
:10137C00BFB2B6B20B4638463246FFF7F5FD079BB7
:10138C00CDF800A0191B05EB440589B20134384691
:10139C0032460B4624B2FFF7E7FD0335A145ADB24B
:1013AC00DDF80CC0A9DC0BB0BDE8F08F10B504461D
:1013BC0081812046022101F045FD0028F9D020460C
:1013CC00012101F03FFD0028F9D02046802101F0D9
:1013DC0039FD0028F9D1A089C0B210BD83B1F8B590
:1013EC005E1E074611FA86F64C1E551E14F8011F98
:1013FC003846FFF7DBFFB44205F8010FF6D1F8BD14
:10140C00704700BF6AB170B5551E064611FA85F5D6
:10141C004C1E14F8011F3046FFF7C8FFAC42F8D140
:10142C0070BD70477BB1F8B55D1E1746064611FAC4
:10143C0085F54C1E30463946FFF7B8FF04F8010F0E
:10144C00AC42F7D1F8BD704710B5044681812046F7
:10145C00022101F0F7FC0028F9D02046012101F00F
:10146C00F1FC0028F9D02046802101F0EBFC00288B
:10147C00F9D1A08980B210BD8BB1F8B55E1EB6B2A1
:10148C00074601EB46068C1E951E34F8021F3846A3
:10149C00FFF7DAFFB44225F8020FF6D1F8BD70471A
:1014AC0072B170B5551EADB2064601EB45058C1EEA
:1014BC0034F8021F3046FFF7C7FFAC42F8D170BDBD
:1014CC00704700BF83B1F8B55D1EADB21646074636
:1014DC0001EB45058C1E38463146FFF7B5FF24F865
:1014EC00020FAC42F7D1F8BD704700BF30B589B0E0
:1014FC000023032402228DF80A308DF80B308DF86E
:10150C0009408DF80820014648B3012842D001213A
:10151C004FF4805000F034FE03A801F0B7FB2025F7
:10152C0000234FF4007203A94FF482742648ADF8DF
:10153C001030ADF80C30ADF81A30ADF81230ADF803
:10154C001430ADF81620ADF81850ADF80E4001F07F
:10155C00FDFA1D48012101F0AFFB09B030BD01209F
:10156C00014600F0DDFD08A9E02341F81C3D1748B9
:10157C0000F078FB05210A46144800F00DFC1348D6
:10158C000621052200F008FC10480721052200F076
:10159C0003FCBCE7104600F0C3FD08A9382341F852
:1015AC001C3D0B4800F05EFB21460948052200F06B
:1015BC00F3FB07480421052200F0EEFB05210A4647
:1015CC00034800F0E9FBA2E70030014000000240B4
:1015DC00000402402DE9F04188B04FF000080125CD
:1015EC00032702268DF80A808DF80B508DF80970B0
:1015FC008DF80860044660B301286DD002284FD0E6
:10160C0001214FF4804000F0AFFD03A801F03EFB38
:10161C00202500234FF4007203A94FF482743C4838
:10162C00ADF81030ADF80C30ADF81A30ADF8123012
:10163C00ADF81430ADF81620ADF81850ADF80E40DA
:10164C0001F084FA3248012101F036FB08B0BDE804
:10165C00F0813046294600F063FD08AC2946042091
:10166C0000F05EFD0C2344F81C3D2A48214600F096
:10167C00F9FA4FF4806321462748019300F0F2FAFF
:10168C0031462448052200F087FB394621480522C3
:10169C0000F082FB20480A21052200F07DFBAFE719
:1016AC0029464FF4807000F03BFD08A90D2341F84A
:1016BC001C3D194800F0D6FA41461848052200F0A6
:1016CC006BFB21461548052200F066FB3946134892
:1016DC00052200F061FB93E73046214600F020FD27
:1016EC0008A94FF4604341F81C3D0B4800F0BAFACE
:1016FC0009480D21052200F04FFB07480E21052259
:10170C0000F04AFB04480F21052200F045FB77E767
:10171C000038004000080240000402400020024053
:10172C0030B589B00023032402228DF80A308DF8DD
:10173C000B308DF809408DF8082048B3012842D0B1
:10174C0001214FF4004000F00FFD03A801F09EFAB8
:10175C00202500234FF4007203A94FF4827428480B
:10176C00ADF81030ADF80C30ADF81A30ADF81230D1
:10177C00ADF81430ADF81620ADF81850ADF80E4099
:10178C0001F0E4F91E48012101F096FA09B030BDD0
:10179C001046012100F0C4FC08A9382341F81C3D77
:1017AC00184800F05FFA21461648062200F0F4FAB9
:1017BC0014480421062200F0EFFA124805210622F3
:1017CC0000F0EAFABCE70146042000F0A9FC08A9E5
:1017DC004FF4E05341F81C3D0B4800F043FA0A4823
:1017EC000A21062200F0D8FA07480B21062200F045
:1017FC00D3FA05480C21062200F0CEFAA0E700BF70
:10180C00003C0040000402400008024030B589B0A2
:10181C000023032202248DF80A308DF80B308DF84A
:10182C0009208DF8084048B3012842D001214FF41B
:10183C00005000F0A5FC03A801F028FA2025002395
:10184C004FF4007203A94FF482742848ADF810309D
:10185C00ADF80C30ADF81A30ADF81230ADF81430DC
:10186C00ADF81620ADF81850ADF80E4001F06EF939
:10187C001E48012101F020FA09B030BD10200121D1
:10188C0000F04EFC08A9642341F81C3D184800F0F8
:10189C00E9F921461648052200F07EFA05210A4690
:1018AC00134800F079FA12480621052200F074FA68
:1018BC00BCE70146102000F033FC08A94FF4E043CC
:1018CC0041F81C3D0A4800F0CDF909480C210522CD
:1018DC0000F062FA06480D21052200F05DFA04487A
:1018EC000E21052200F058FAA0E700BF0034014099
:1018FC000010024030B589B00023032102228DF87C
:10190C000A308DF80B308DF809108DF8082004463C
:10191C0048B3012843D001214FF4801000F030FC73
:10192C0003A801F0B3F9202500234FF4007203A99A
:10193C004FF482742D48ADF81030ADF80C30ADF882
:10194C001A30ADF81230ADF81430ADF81620ADF8F1
:10195C001850ADF80E4001F0F9F82448012101F0BF
:10196C00ABF909B030BD2020012100F0D9FB08A94A
:10197C004FF4607341F81C3D1D4800F073F91C488E
:10198C000721052200F008FA19480821052200F069
:10199C0003FA17480921052200F0FEF9BBE721469E
:1019AC00202000F0BDFB08AD2146802000F0B8FBE4
:1019BC00C02345F81C3D0E48294600F053F94FF45E
:1019CC00006329460A48019300F04CF908480B21A2
:1019DC00052200F0E1F907480621052200F0DCF9A8
:1019EC0004480721052200F0D7F994E70050014084
:1019FC0000140240001C024070B5402088B0012148
:101A0C0000F08EFB254D264E08A94FF4E043002430
:101A1C0041F81C3D2846022303228DF808308DF82E
:101A2C0009208DF80A408DF80B4000F01BF9284670
:101A3C000D21052200F0B0F928460C21052200F0FA
:101A4C00ABF9052228460E2100F0A6F901214FF42E
:101A5C00001000F095FB03A801F018F920254FF4B5
:101A6C0082724FF4007303A93046ADF80E20ADF826
:101A7C001630ADF81040ADF80C40ADF81A40ADF88A
:101A8C001240ADF81440ADF8185001F05FF8304634
:101A9C00012101F011F908B070BD00BF001802401F
:101AAC0000540140124B984212D0124B984212D063
:101ABC00114B984212D0114B984212D0104B9842B5
:101ACC0012D0104B984200D070470846FFF794BFD5
:101ADC000846FFF70BBD0846FFF77CBD0846FFF72D
:101AEC001FBE0846FFF792BE0846FFF703BF00BFB4
:101AFC000030014000380040003C00400034014000
:101B0C00005001400054014008B54B4B98422AD07C
:101B1C004A4B984231D04A4B984238D0494B984264
:101B2C003FD0494B984246D0484B98424DD0484BF9
:101B3C00984254D0474B98425BD0474B984262D066
:101B4C00464B98426BD0464B984200D008BD4FF4A0
:101B5C008060012100F020FB4FF480600021BDE883
:101B6C00084000F019BB0120014600F015FB0120D4
:101B7C000021BDE8084000F00FBB0220012100F05D
:101B8C000BFB02200021BDE8084000F005BB04203F
:101B9C00012100F001FB04200021BDE8084000F009
:101BAC00FBBA0820012100F0F7FA08200021BDE85B
:101BBC00084000F0F1BA1020012100F0EDFA1020DD
:101BCC000021BDE8084000F0E7BA2020012100F018
:101BDC00E3FA20200021BDE8084000F0DDBA4020E7
:101BEC00012100F0D9FA40200021BDE8084000F0A6
:101BFC00D3BA8020012100F0CFFA80200021BDE86B
:101C0C00084000F0C9BA4FF48070012100F0C4FA0A
:101C1C004FF480700021BDE8084000F0BDBA4FF4CD
:101C2C000070012100F0B8FA4FF400700021BDE8FB
:101C3C00084000F0B1BA00BF0000024000040240AE
:101C4C0000080240000C0240001002400014024048
:101C5C0000180240001C02400020024000240240F8
:101C6C000028024000222DE9F0431346D1F800E091
:101C7C0001274FF0030C04E00133102B02F1020298
:101C8C0028D007FA03F404EA0E05A542F4D1D0F8E3
:101C9C0000800E790CFA02F4E44304EA0808C0F858
:101CAC000080D0F8008006FA02F9013E49EA0808E3
:101CBC00012EC0F800800FD9C568CE792C40C460C5
:101CCC00C56806FA02F401332C43102BC46002F1F0
:101CDC000202D6D1BDE8F083D0F8089091F80580C7
:101CEC008E7904EA0909C0F80890D0F8089008FA2F
:101CFC0002F848EA0908C0F80880D0F8048028EAFD
:101D0C0005054560D0F8048006FA03F5ADB245EA46
:101D1C0008054560D0E700BF00234FF6FF72026054
:101D2C00037143718371C371704700BF82B04FF46C
:101D3C0080330193019B0B430193019BC361C161F0
:101D4C00019BC361C3690193C369019302B07047DE
:101D5C000369194214BF012000207047006980B24A
:101D6C00704700BF4369194214BF0120002070471F
:101D7C00406980B2704700BF018370474183704750
:101D8C000AB9418370470183704700BF41617047B6
:101D9C004369594041617047CB0800EB830001F067
:101DAC00070110B48900046A0F238B4024EA030353
:101DBC000362036A5DF8044B8A4013430362704765
:101DCC000F4B10481A68002142F0010230B41A601F
:101DDC0099601A680C4D0D4C22F0A85222F4102276
:101DEC001A605D60C3F88440C3F888001A6822F456
:101DFC0080221A6030BCD960C3F88C10704700BFC9
:101E0C000038024000300024103000240030002044
:101E1C00024B00221A701870704700BF0238024043
:101E2C0082B000230A4A019302E0B3F5A04F08D018
:101E3C00136813F4003F019B03F101030193019B11
:101E4C00F3D0034B1868C0F3404002B0704700BF9A
:101E5C0000380240034A136823F0F80343EAC00039
:101E6C001060704700380240014B1860704700BF8B
:101E7C0000004742064B002201281A701A7005D048
:101E8C00042802D105221A707047704718707047E9
:101E9C0070380240014B1860704700BF800E4742FB
:101EAC0030B4029C064D40EA046001435B08013BE0
:101EBC0041EA821242EA0340686030BC704700BFBE
:101ECC0000380240014B1860704700BF6000474269
:101EDC00120742EA0161034B41EA8010C3F8840007
:101EEC00704700BF00380240014B1860704700BFBC
:101EFC0068004742120742EA0161034B41EA801035
:101F0C00C3F88800704700BF00380240014B1860CE
:101F1C00704700BF70004742014B1860704700BF0C
:101F2C004C004742034A936823F0EC63194308437F
:101F3C009060704700380240034A936823F078435E
:101F4C00194308439060704700380240034A936875
:101F5C0023F0030318439060704700BF0038024021
:101F6C00024B986800F00C00704700BF003802402C
:101F7C00034A936823F0F00318439060704700BF46
:101F8C0000380240034A936823F4E05318439060EE
:101F9C00704700BF00380240034A936823F4604343
:101FAC0043EAC000906070470038024010B4214CE6
:101FBC00A36803F00C03042B1BD0082B1CD01E4B66
:101FCC0003601C4A1D499468C4F303140C5DE34080
:101FDC0043609468C4F382240C5D23FA04F4846097
:101FEC0092685DF8044BC2F342328A5CD340C36002
:101FFC007047134B0360E4E76368616813F4800F68
:10200C00636818BF0E4C01F03F020CBF0A49B4FBC9
:10201C00F2F1C3F3881308BFB1FBF2F101FB03F239
:10202C00044B5B68C3F3014301335B00B2FBF3F376
:10203C000360C6E7003802400024F40030000020A2
:10204C0000127A0000F44073B3F5407F09D10849BF
:10205C008B6820F0704223F4F81322F4407213437F
:10206C008B60034A136FC0F30B0018431067704763
:10207C0000380240014B1860704700BF3C0E4742CD
:10208C00014B1860704700BF400E4742014B18606F
:10209C00704700BF5C014742044AD2F88C300138CB
:1020AC0023F01F030343C2F88C3070470038024002
:1020BC00054AD2F88C30013823F4F85343EA002354
:1020CC00C2F88C30704700BF00380240044AD2F886
:1020DC008C3023F440131843C2F88C00704700BFB7
:1020EC0000380240044AD2F88C3023F440031843E1
:1020FC00C2F88C00704700BF00380240044AD2F886
:10210C008C3023F440331843C2F88C00704700BF66
:10211C0000380240014B1860704700BFE011474285
:10212C00044A136B19B923EA000010637047184373
:10213C001063704700380240044A536B19B923EA04
:10214C0000005063704718435063704700380240DA
:10215C00044A936B19B923EA000090637047184343
:10216C009063704700380240044A136C19B923EA93
:10217C000000106470471843106470470038024028
:10218C00044A536C19B923EA000050647047184391
:10219C005064704700380240044A136919B923EAA5
:1021AC0000001061704718431061704700380240FE
:1021BC00044A536919B923EA000050617047184367
:1021CC005061704700380240044A936919B923EAF8
:1021DC0000009061704718439061704700380240CE
:1021EC00044A136A19B923EA0000106270471843B5
:1021FC001062704700380240044A536A19B923EA46
:10220C00000050627047184350627047003802401B
:10221C00044A136D19B923EA00001065704718437E
:10222C001065704700380240044A536D19B923EA0F
:10223C0000005065704718435065704700380240E5
:10224C00044A936D19B923EA00009065704718434E
:10225C009065704700380240044A136E19B923EA9E
:10226C000000106670471843106670470038024033
:10227C00044A536E19B923EA00005066704718439C
:10228C005066704700380240044A137819B923EAA3
:10229C000000107070471843107070470D380240E2
:1022AC004309012B0BD0022B094B0CBF1A6F5A6F31
:1022BC0000F01F0322FA03F000F001007047044BFA
:1022CC001A6800F01F0322FA03F000F001007047B7
:1022DC0000380240024A536F43F0807353677047D3
:1022EC0000380240034BDB68184214BF0120002069
:1022FC00704700BF00380240014B1870704700BF98
:10230C000E380240044B054900221A605A609A604C
:10231C00DA605961704700BF003C0140FFFF7F004D
:10232C00837933B31C4B02794179F0B404681E688D
:10233C00E7433E401E605D6802F1804202F59E322A
:10234C003D405D6015682C43146002689C68D54361
:10235C002C409C60D868102900EA0500D86013D086
:10236C0001F1804303F59E33F0BC19680A431A60EF
:10237C0070470379016803F1804303F59E331A68B3
:10238C0022EA01021A607047996811439960D96872
:10239C000A43DA60F0BC7047003C014000230C2279
:1023AC004271036003718371704700BF024A136965
:1023BC0018431061704700BF003C0140034B5B6940
:1023CC00184214BF01200020704700BF003C0140A0
:1023DC00014B5861704700BF003C0140034B5B69E7
:1023EC00184214BF01200020704700BF003C014080
:1023FC00014B5861704700BF003C014040F0BF608A
:10240C00024B40F40030D860704700BF00ED00E094
:10241C00C3785BB9037818485A09203203F01F03BC
:10242C00012101FA03F340F822307047134BF0B44A
:10243C00D9684578827804780F4EC943C1F30221DC
:10244C00C1F10407FFB20F23BD400B411340E9B2A9
:10245C000B4304F1604202F561421B01DBB282F8CE
:10246C0000330378012203F01F015B098A4046F810
:10247C002320F0BC704700BF00E100E000ED00E05D
:10248C0021F0604121F07F01014B084398607047B7
:10249C0000ED00E0044A136919B923EA0000106149
:1024AC00704718431061704700ED00E0044A136850
:1024BC0004280CBF43F0040323F00403136070479B
:1024CC0010E000E0014BC0B218707047003C0240B5
:1024DC00054A136818B923F480731360704743F4EA
:1024EC0080731360704700BF003C0240054A1368BC
:1024FC0018B923F400731360704743F4007313602E
:10250C00704700BF003C0240054A136818B923F419
:10251C0080631360704743F480631360704700BF9F
:10252C00003C0240024A136843F400631360704796
:10253C00003C0240024A136843F480531360704716
:10254C00003C0240044B1A69002A03DA0349044A8E
:10255C0059605A60704700BF003C02402301674538
:10256C00AB89EFCD024A136943F000431361704706
:10257C00003C0240044B5A69D20703D50349044A74
:10258C0099609A60704700BF003C02403B2A1908D2
:10259C007F6E5D4C024A536943F0010353617047EF
:1025AC00003C0240034A137803F07F031843107079
:1025BC00704700BF173C0240044B1A7802F0EF0240
:1025CC001A701A7810431870704700BF143C024000
:1025DC00044B1A7802F0F3021A701A781043187030
:1025EC00704700BF143C0240024B5869C0F34710BF
:1025FC00704700BF003C0240014B188880B2704706
:10260C00163C0240014B188880B270471A3C0240BD
:10261C00014B188880B27047163C0240014B188859
:10262C0080B270471A3C0240024B1878AA3818BF87
:10263C0001207047153C0240024B187800F00C004A
:10264C00704700BF143C0240044A136919B923EACD
:10265C00000010617047184310617047003C024045
:10266C00034BDB68184214BF01200020704700BFE9
:10267C00003C0240014BD860704700BF003C024058
:10268C000E4BDA68D20309D4DA68D10601D50620DC
:10269C007047DA68D20503D50220704701207047D5
:1026AC00DA6812F0EF0F01D007207047DB6813F0E7
:1026BC00020F14BF08200920704700BF003C0240E5
:1026CC0000B583B009238DF80730FFF7D9FF8DF8DB
:1026DC0007009DF80730012BF7D09DF80700C0B21A
:1026EC0003B05DF804FB00BF70B5064659B3012971
:1026FC002FD002290CBF4FF400744FF44074FFF735
:10270C00DFFF092824D1144D2B6923F440732B616E
:10271C002969214329612B6923F0F8032B612B696B
:10272C0043F002031E432E612B6943F480332B616B
:10273C00FFF7C6FF2B6923F002032B612B6923F0F3
:10274C00F8032B6170BD0C46FFF7BAFF0928DAD0ED
:10275C0070BD4FF48074F7E7003C024038B5044676
:10276C00FFF7AEFF3CB1012C08D0022C0CBF4FF48C
:10277C0000744FF44074092804D038BD09284FF474
:10278C008074FAD10D4D2B6923F440732B612B69A6
:10279C001C432C612B6943F4004343F004032B616D
:1027AC002B6943F480332B61FFF78AFF2B6923F4E9
:1027BC00004323F004032B6138BD00BF003C0240F2
:1027CC0038B50446FFF77CFF3CB1012C08D0022C35
:1027DC000CBF4FF400744FF44074092804D038BD7A
:1027EC0009284FF48074FAD10B4D2B6923F44073F4
:1027FC002B612B691C432C612B6943F004032B6167
:10280C002B6943F480332B61FFF75AFF2B6923F0BC
:10281C0004032B6138BD00BF003C024038B50446B0
:10282C00FFF74EFF3CB1012C08D0022C0CBF4FF42B
:10283C0000744FF44074092804D038BD09284FF4B3
:10284C008074FAD10B4D2B6923F440732B612B69E7
:10285C001C432C612B6943F400432B612B6943F41B
:10286C0080332B61FFF72CFF2B6923F400432B6182
:10287C0038BD00BF003C0240F8B5054616461F4661
:10288C00FFF71EFF092800D0F8BD0B4C236923F479
:10289C0040732361236943F440732361236943F03C
:1028AC0001032361C5E90067FFF70AFF236923F0E1
:1028BC0001032361F8BD00BF003C024070B5054622
:1028CC000E46FFF7FDFE092800D070BD0A4C2369A7
:1028DC0023F440732361236943F400732361236958
:1028EC0043F0010323612E60FFF7EAFE236923F016
:1028FC000103236170BD00BF003C024070B505466A
:10290C000E46FFF7DDFE092800D070BD0A4C236986
:10291C0023F440732361236943F480732361236997
:10292C0043F0010323612E80FFF7CAFE236923F0D5
:10293C000103236170BD00BF003C024070B5054629
:10294C000E46FFF7BDFE092800D070BD094C236967
:10295C0023F44073236123692361236943F001034A
:10296C0023612E70FFF7ACFE236923F00103236172
:10297C0070BD00BF003C024038B505460C46FFF761
:10298C009FFE092800D038BD054B18881CB9284378
:10299C0080B2188038BD80B220EA0500188038BD9E
:1029AC00163C024038B505460C46FFF789FE09284F
:1029BC0000D038BD054B18881CB9284380B218804C
:1029CC0038BD80B220EA0500188038BD1A3C0240A0
:1029DC0038B505460C46FFF773FE092800D038BD04
:1029EC00054B188824B980B220EA0500188038BD40
:1029FC00284380B2188038BD163C024038B50546D5
:102A0C000C46FFF75DFE092800D038BD054B188831
:102A1C0024B980B220EA0500188038BD284380B262
:102A2C00188038BD1A3C024010B50446FFF748FE2A
:102A3C00092804BF014B1C7010BD00BF153C02409F
:102A4C0070B506460C461546FFF73AFE092807D125
:102A5C00044B197801F01F013143294321431970AC
:102A6C0070BD00BF143C0240034A137843F00203CC
:102A7C001370FFF725BE00BF143C024008B52D4B68
:102A8C0098421BD02C4B984224D02C4B98422DD0E2
:102A9C002B4B984236D02B4B98423FD02A4B984226
:102AAC0000D008BD4FF400100121FFF7A5FB4FF437
:102ABC0000100021BDE80840FFF79EBB4FF480508A
:102ACC000121FFF799FB4FF480500021BDE808402D
:102ADC00FFF792BB4FF480400121FFF781FB4FF4CD
:102AEC0080400021BDE80840FFF77ABB4FF400405E
:102AFC000121FFF775FB4FF400400021BDE80840B1
:102B0C00FFF76EBB4FF400500121FFF775FB4FF43C
:102B1C0000500021BDE80840FFF76EBB4FF4801059
:102B2C000121FFF769FB4FF480100021BDE808403C
:102B3C00FFF762BB0030014000380040003C004011
:102B4C000034014000500140005401402DE9F04197
:102B5C000B88B1F80280B1F804C0CA88B1F808E05B
:102B6C004F898E89CC890588098A48EA030343EA90
:102B7C000C03134343EA0E033B43334343EA04027F
:102B8C0005F4415313439BB20380838B23F40063FE
:102B9C001B041B0C83830182BDE8F081828B8B6844
:102BAC0022F47B6222F00F0212042DE9F043120C86
:102BBC00022482830484B0F81CE0A3421FFA8EFE28
:102BCC0051D02F4A8F889468002F14BF4FF0020CFD
:102BDC004FF0010C240241D4294ACE88D2F88450FB
:102BEC00D2F884405268DFF8A080C5F38815B6F59A
:102BFC00007F02F03F09C4F30272B8FBF9F405FB45
:102C0C0004F4B4FBF2F431D04FEA4C12B4FBF2F200
:102C1C0002EB82025200B2FBF3F305339AB2194B6A
:102C2C00A3FB0223DB085A08941E03F00103FD2CBE
:102C3C0094BF42EA032302230C884A8889894EEA0E
:102C4C00040E4EF4006E4EEA02020A43334392B273
:102C5C009BB2174303848783BDE8F083946824F404
:102C6C0000049460B8E78F88CE88E5E7240A04EB6B
:102C7C0084046400B4FBF3F305339AB2CFE700BFCE
:102C8C0000380240CDCCCCCC00127A0000230722B5
:102C9C000282038043808380C380038143818381CC
:102CAC00C3817047002302228260038043808380AB
:102CBC00C3808381704700BF038829B923F0400388
:102CCC001B041B0C038070479BB243F04003038032
:102CDC00704700BF838B29B923F480631B041B0C42
:102CEC00838370479BB243F480638383704700BF38
:102CFC00038823F400631B041B0C038003889BB222
:102D0C0019430180704700BFB1F5804F038805D08F
:102D1C0023F480431B041B0C038070479BB243F4C9
:102D2C0080430380704700BF4FF6FF6399420388CE
:102D3C0004D09BB243F480730380704723F48073F8
:102D4C001B041B0C03807047838829B923F00403F0
:102D5C001B041B0C838070479BB243F004038380DD
:102D6C00704700BF838829B923F010031B041B0C88
:102D7C00838070479BB243F010038380704700BF81
:102D8C00838B23F47B6323F00F031B0402221B0CA5
:102D9C0083830284838B8A8970B44D880C888E88D7
:102DAC009BB22B4324F4007143F40063334389B288
:102DBC00134300299BB20CBF4FF4807200221343C3
:102DCC00838370BC704700BF808980B2704700BF9E
:102DDC0081817047038829B923F400531B041B0C11
:102DEC00038070479BB243F400530380704700BFCD
:102DFC0003889BB243F4805303807047012914BFAE
:102E0C00008B808A80B27047008A80B2704700BF06
:102E1C0083889BB21AB923EA010181807047194358
:102E2C0081807047090901238B409BB22AB98288A3
:102E3C0092B222EA030383807047828892B21343D2
:102E4C00838070470389194214BF0120002070470A
:102E5C00C94389B20181704710B484880389012267
:102E6C0001F00F009BB202FA00F01840A4B205D09A
:102E7C0009098A40144214BF012000205DF8044B5C
:102E8C00704700BF01F00F0101238B40DB439BB265
:102E9C000381704708B54FF480400121FFF7ACF96E
:102EAC004FF480400021BDE80840FFF7A5B900BFF2
:102EBC00014B1860704700BF00380140014B18608F
:102ECC00704700BF2000274201F0FC0303F1804350
:102EDC0003F59C3301F0030110B489009C680F22A8
:102EEC008A4024EA02029A609A685DF8044B884092
:102EFC0002439A60704700BF014B1860704700BFD7
:102F0C00DC002742014B1860704700BF00042742C9
:102F1C00024B186AC0F30020704700BF0038014014
:102F2C0070B50F4E0F4D761BB61018BF002405D090
:102F3C00013455F8043B9847A642F9D10A4E0B4D83
:102F4C00761B00F0E3F8B61018BF002406D001344D
:102F5C0055F8043B9847A642F9D170BD70BD00BF2F
:102F6C00D45A0008D45A0008DC5A0008D45A000875
:102F7C00024B13B1024800F005B870470000000086
:102F8C009D2F0008014600200246034600F016B8AB
:102F9C0038B5084B084DED1AAC1018BFED1805D01C
:102FAC00013C55F8043D9847002CF9D1BDE8384058
:102FBC0000F0B2B8DC5A0008E05A00082DE9F047DE
:102FCC00254C2568D5F848410646884692469946D0
:102FDC00CCB360681F2818DC431C7EB104EB800561
:102FEC000121C5F888A0D4F8887101FA00F21743C2
:102FFC00022EC4F88871C5F808911ED002306360A7
:10300C0044F820800020BDE8F087144B03B34FF444
:10301C00C870AFF300800446D0B1D5F84831002712
:10302C0080E88800C5F8484138460123C4F8887107
:10303C00C4F88C71002EE1D0D0E7D4F88C110A437F
:10304C00C4F88C21DAE705F5A674C5F84841C0E749
:10305C004FF0FF30BDE8F087985A000800000000E0
:10306C0010B582B0FDF77EF9FDF730FE0320FDF7B9
:10307C0095FEFDF727FBFDF741FB00224BF2237376
:10308C008DE80C00412082210A4A0B4BFDF732FFE0
:10309C00FDF7E4FA04460028FAD14BF223730090B2
:1030AC00019341208221054A034BFDF723FF204663
:1030BC0002B010BD9C5A000820000020B05A000835
:1030CC00002103E00B4B5B58435004310A480B4B77
:1030DC0042189A42F6D30A4A02E0002342F8043B13
:1030EC00084B9A42F9D3FDF73DF9FFF719FFFFF7AB
:1030FC00B7FF7047E05A0008000000206804002069
:10310C0068040020A4040020FEE70000F8B500BF0E
:10311C00F8BC08BC9E467047F8B500BFF8BC08BCAC
:04312C009E46704704
:103130003A044010121432801717180519021A7B2E
:10314000030A0C0C3E007000710172117309A20297
:1031500011007A207B1C7C287D3C7E557F68807620
:1031600081808288838F849685A386AF87C488D721
:1031700089E813E0000010000D001410A505AB074E
:103180002475256326A59F78A068A103A6DFA7DF85
:10319000A8F0A990AA9413E50E610F4B16021E2702
:1031A000210222912907330B350B371D3871392A3B
:1031B0003C784D404E20695D6B4074198D4F8E00F8
:1031C0008F0090009100920096009A80B084B10C1C
:1031D000B20EB382B80A431444F045344658472827
:1031E000483A59885A885B445C675D495E0E6404BE
:1031F00065206605940495086C0A6D556E116F9FE5
:103200006A4013E715004F80508051005222535EF0
:103210005480550056605790589E41083F057505EB
:1032200076E14C0F770A3DC24B09C9C841383411C9
:103230003B02A48996009730982099309A849B2964
:103240009C039D4C9E3F78047901C8F0790FC8001B
:103250007910C87E790AC880790BC801790CC80F2B
:10326000790DC8207909C8807902C8C07903C8409F
:103270007905C83069AA09003B422D010000000011
:10328000000000000000000000000000000000003E
:10329000000000000000000000000000000000002E
:1032A000000000000000000000000000000000001E
:1032B00000000000E003E003E003E003E003E003BC
:1032C000E003E003C003C003C001C001C001C001AE
:1032D000C001000000000000E003E003E003000084
:1032E00000000000000000003C1E3C1E3C1E3C1E76
:1032F0003C1E3C1E3C1E00000000000000000000C0
:1033000000000000000000000000000000000000BD
:10331000000000000000000000000000CE01CE030D
:10332000DE039E039C039C07FF3FFF7F3807380F97
:10333000780F780F780EFFFFFFFFF01EF01CE01CE7
:10334000E03CE03DE039000000000000000000002B
:10335000FC03FE0FEE1FE01EE01EE01EE01EE01F5D
:10336000E00FE007F003FC01FE01FE01FE01FE019B
:10337000FE01FE01FE3DFC3FF00FE001E001000018
:1033800000000000033E07F78FE78EE79EE3BCE3F3
:10339000B8E7F8E7F0F7E03FC001FF03FF07F307E6
:1033A000F30FF31EF33CF338F3787FF03FE00000B7
:1033B0000000000000000000E007F80F780F781F01
:1033C000781F781F780FF00FE00F801FC37FC3FBBB
:1033D000E7F3F7F1F7F0FFF07FF03EF87F7CFF3F77
:1033E000EF1F00000000000000000000E003E00309
:1033F000E003E003E003C003C001000000000000A0
:1034000000000000000000000000000000000000BC
:1034100000000000000000000000000000000000AC
:103420003F007C00F001E001C003C0078007800777
:10343000800F000F000F000F000F000F000F800F14
:1034400080078007C007C003E001F0017C003F0057
:103450000F000000007E001FC007C003E001F00164
:10346000F000F000F800780078007800780078002C
:103470007800F800F000F000F001E001C003C007A0
:10348000001F007E00780000E003C003C001CE39B9
:10349000FF3F7F3F20037003F807780F3C1F38067B
:1034A000000000000000000000000000000000001C
:1034B000000000000000000000000000000000000C
:1034C0000000000000000000C001C001C001C001F8
:1034D000C001C001C001FFFFFFFFC001C001C0016A
:1034E000C001C001C0010000000000000000000099
:1034F00000000000000000000000000000000000CC
:1035000000000000000000000000000000000000BB
:103510000000E003E003E003E003E001E001E0017C
:10352000C001800300000000000000000000000057
:1035300000000000000000000000FE3FFE3F000011
:10354000000000000000000000000000000000007B
:10355000000000000000000000000000000000006B
:10356000000000000000000000000000000000005B
:1035700000000000000000000000E003E003E003A2
:10358000E003000000000000000000000F000F003A
:103590001E001E003C003C0078007800F000F000A7
:1035A000E001E001C003C00380078007000F000FA7
:1035B000001E001E003C003C0078007800F0000077
:1035C000F007F80F7C1F3E3E1E3C1F7C1F7C0F78CF
:1035D0000F780F780F780F780F780F781F7C1F7C8B
:1035E0001E3C3E3E7C1FF80FF0070000000000006C
:1035F00000000000F000F007F03FF03FF001F001A4
:10360000F001F001F001F001F001F001F001F00132
:10361000F001F001F001F001F001FF3FFF3F000079
:103620000000000000000000E00FF83F7C3C3C0080
:103630003E003E003E003C003C007C00F800F001F3
:10364000E003C0078007000F001E003E003CFE3F65
:10365000FE3F00000000000000000000F00FF81F17
:103660007C1C3E003E003E003C003C00F800F00F99
:10367000F80F7C003E001E001E001E001E003E00D3
:103680007C1CF81FE01F000000000000000000008C
:103690007800F800F800F801F803F807F807780F49
:1036A000781E781E783C78787878FFFFFFFF7800E6
:1036B00078007800780078007800000000000000B2
:1036C00000000000FC1FFC1FFC1F001E001E001E4F
:1036D000001E001EE01FF81FFC007C003E003E00A4
:1036E0001E003E003E003C007C1CF81FE01F000056
:1036F0000000000000000000FC01FE078E0F001F0C
:10370000001E003E003C003CF83DFC3F3E7F1F7E1B
:103710000F3C0F3C0F3C0F3C0F3E1F1E3E1FFC0F8B
:10372000F00300000000000000000000FF3FFF3F2A
:10373000FF3F0F001E001E003C0038007800F00024
:10374000F000E001E001C003C0038007800F800F9C
:10375000000F001F001F000000000000000000001C
:10376000F807FC0F3E1F1E1E1E3E1E3E1E1E3C1F67
:10377000F80FF007F80FFC1E3E3E1F3C1F7C0F7C2D
:103780000F7C1F3C3E3FFC1FF007000000000000C4
:1037900000000000F007F80F7C1E3E3C1E3C1F7C22
:1037A0001F7C1F7C1F7C1F3C3F3EFF1FEF071F003D
:1037B0001E001E003E003C00F838F03FE01F0000F5
:1037C00000000000000000000000000000000000F9
:1037D00000000000E003E003E003E003000000005D
:1037E00000000000000000000000E003E003E00330
:1037F000E0030000000000000000000000000000E6
:103800000000000000000000E003E003E003E0032C
:103810000000000000000000000000000000E003C5
:10382000E003E003E003E001E001E001C003800306
:1038300000000000000000000000000003000F0076
:103840003F00FC00F003C00F003F00FE003FC00F30
:10385000F003FC003F000F00030000000000000028
:103860000000000000000000000000000000000058
:103870000000000000000000FFFFFFFF000000004C
:103880000000FFFFFFFF000000000000000000003C
:103890000000000000000000000000000000000028
:1038A0000000000000E000F8007E801FE007F80143
:1038B0007E001F007E00F801E007801F007E00F8F8
:1038C00000E000000000000000000000F01FFC3FCE
:1038D0003E381F381F381E001E003C007800F000E4
:1038E000E001C003C003C007C007000000000000E3
:1038F000C007C007C0070000000000000000000073
:10390000F803FE0F1E1F0F3E7F3CFF78EF79C77351
:10391000C7F38FF38FF38FF39FF39FF3FF73FF7B57
:10392000F779003C1C1FFC0FF803000000000000AA
:1039300000000000000000000000E003E003F007CA
:10394000F007F007780F780F7C0E3C1E3C1E3E3CC3
:10395000FE3FFF3F1F780F780FF007F007F00000E1
:103960000000000000000000000000000000F83F20
:10397000FC3F3E3C1E3C1E3C1E3C3E3C7C3CF03F23
:10398000F83F7E3C1F3C1F3C0F3C0F3C1F3CFE3F62
:10399000F83F0000000000000000000000000000F0
:1039A0000000FF01FF07871F003E003C007C0078FD
:1039B0000078007800780078007C007C003E003FB2
:1039C000831FFF07FF01000000000000000000004F
:1039D000000000000000F07FFC7F7E781F781F78D9
:1039E0000F780F780F780F780F780F780F780F789F
:1039F0001F781E787E78F87FE07F000000000000CE
:103A000000000000000000000000FF3FFF3F003EFC
:103A1000003E003E003E003E003EFE3FFE3F003EB8
:103A2000003E003E003E003E003EFF3FFF3F0000E4
:103A30000000000000000000000000000000FF1F68
:103A4000FF1F001E001E001E001E001E001EFF1F86
:103A5000FF1F001E001E001E001E001E001E001E76
:103A6000001E000000000000000000000000000038
:103A70000000FE03FF0F871F003E007C007C0078E3
:103A800000F800F87FF87FF80F780F7C0F7C0F3E6E
:103A90008F1FFF0FFE030000000000000000000069
:103AA0000000000000001F7C1F7C1F7C1F7C1F7C0F
:103AB0001F7C1F7C1F7CFF7FFF7F1F7C1F7C1F7C68
:103AC0001F7C1F7C1F7C1F7C1F7C000000000000EF
:103AD00000000000000000000000FF3FFF3FE00387
:103AE000E003E003E003E003E003E003E003E003BE
:103AF000E003E003E003E003E003FF3FFF3F0000DB
:103B00000000000000000000000000000000FC1F9A
:103B1000FC1F7C007C007C007C007C007C007C0026
:103B20007C007C007C007C0078007800F838F03F56
:103B3000C03F000000000000000000000000000086
:103B400000001F3C1E3C3C3C783CF03CE03DE03F2C
:103B5000C03F803FC03FE03FF03DF03C783C7C3CC4
:103B60003E3C1F3C0F3C0000000000000000000035
:103B7000000000000000003E003E003E003E003E0F
:103B8000003E003E003E003E003E003E003E003E45
:103B9000003E003E003EFF3FFF3F000000000000EF
:103BA000000000000000000000001FF81FFC1FFCC8
:103BB0003FFE3FFE3FFE7FFF77FF77FFF7F7E7F718
:103BC000E7F3E7F3C7F307F007F007F007F00000AB
:103BD00000000000000000000000000000000F7C5A
:103BE0000F7C0F7E0F7F0F7F8F7F8F7FCF7FEF7BCD
:103BF000EF79FF79FF78FF787F783F783F781F78FB
:103C00001F7800000000000000000000000000001D
:103C10000000F007FC1F3E3E1F7C0F780F780FF866
:103C20000FF80FF80FF80FF80FF80F780F781F7CC8
:103C30003E3EFC1FF00700000000000000000000F6
:103C4000000000000000FC3FFF3F1F3E0F3E0F3E04
:103C50000F3E0F3E1F3E3F3EFC3FF03F003E003E0A
:103C6000003E003E003E003E003E0000000000001E
:103C700000000000000000000000F007FC1F3E3EB6
:103C80001F7C0F780F780FF80FF80FF80FF80FF868
:103C90000FF80F780F781F7C3E3EFC1FF8077C0062
:103CA0003F000F0003000000000000000000F03F94
:103CB000FC3F7E3C3E3C1E3C1E3C3E3C3C3CFC3CB7
:103CC000F03FE03FF03DF83C7C3C3E3C1E3C1F3C5E
:103CD0000F3C000000000000000000000000000099
:103CE0000000FC07FE1F0E3E003C003C003C003E76
:103CF000C01FF80FFE037F001F000F000F001F20E2
:103D00003E3CFC3FF01F00000000000000000000EF
:103D1000000000000000FFFFFFFFE003E003E003FE
:103D2000E003E003E003E003E003E003E003E0037B
:103D3000E003E003E003E003E00300000000000014
:103D4000000000000000000000000F7C0F7C0F7CD2
:103D50000F7C0F7C0F7C0F7C0F7C0F7C0F7C0F7C0B
:103D60000F7C0F7C1E3C1E3C3E3EFC1FF0070000FB
:103D7000000000000000000000000000000007F04C
:103D800007F007F80F780F7C1E3C1E3C1E3E3C1EC1
:103D90003C1F781F780FF80FF007F007F007E003DB
:103DA000E003000000000000000000000000000030
:103DB000000003E003F003F007F0E7F3E7F3E7F3B5
:103DC000E773F77BF77FFF7F7F7F7F7F7E7F7E3F7D
:103DD0003E3E3E3E3E3E000000000000000000006F
:103DE00000000000000007F80F7C1E3E3E3E3C1F16
:103DF000F80FF007E007E003E003F007F80F7C0F8F
:103E00007C1E3E3C1F780F780FF000000000000081
:103E10000000000000000000000007F807780F7C99
:103E20001E3C1E3E3C1F780FF80FF007E003E00336
:103E3000E003E003E003E003E003E003E00300004D
:103E40000000000000000000000000000000FF7FF4
:103E5000FF7F0F001F003E007C00F800F000E00133
:103E6000E003C007800F000F001E003E007CFF7FB4
:103E7000FF7F00000000000000000000FF07800737
:103E800080078007800780078007800780078007FA
:103E900080078007800780078007800780078007EA
:103EA00080078007800780078007FF07FF07000063
:103EB00000780078003C003C001E001E000F000F40
:103EC00080078007C003C003E001E001F000F000BC
:103ED000780078003C003C001E001E000F000F0020
:103EE00007000000F07FF000F000F000F000F000AC
:103EF000F000F000F000F000F000F000F000F00042
:103F0000F000F000F000F000F000F000F000F00031
:103F1000F000F07FF07F0000C000C001C001E003AE
:103F2000E003F007F0077807780F380F3C1E3C1EBF
:103F30001E3C1E3C0F380F78077800000000000080
:103F40000000000000000000000000000000000071
:103F50000000000000000000000000000000000061
:103F60000000000000000000000000000000000051
:103F7000000000000000FFFFFFFF00000000000045
:103F8000F000000000000000000000000000000041
:103F90000000000000000000000000000000000021
:103FA0000000000000000000000000000000000011
:103FB0000000000000000000000000000000000001
:103FC000F80FFC3F7C3C3E003E003E00FE07FE1F1B
:103FD0003E3E3E7C3E783E7C7E7CFF3FCF1F000015
:103FE0000000000000000000003C003C003C003CE1
:103FF000003C003CF83DFE3F3E3F1F3E0F3C0F3C67
:104000000F3C0F3C0F3C0F3C1F3C1E3C3E3FFC3F17
:10401000F03B000000000000000000000000000075
:104020000000000000000000FE03FF0F871F003E9D
:10403000003E003C007C007C007C003C003E003EDA
:10404000871FFF0FFE0300000000000000000000BB
:104050001F001F001F001F001F001F00FF07FF1F82
:104060003F3E1F3C1F7C1F7C1F7C1F781F781F7CDE
:104070001F7C3F3C7F3EFF1FDF0F00000000000061
:104080000000000000000000000000000000000030
:10409000F803FC0F3E1F1E3E1F3C1F7CFF7FFF7F6F
:1040A000007C007C003C003E071FFF0FFE03000069
:1040B0000000000000000000FF01E103C003C00792
:1040C000C007C007FF7FFF7FC007C007C007C0074A
:1040D000C007C007C007C007C007C007C007C007A8
:1040E000C007000000000000000000000000000009
:1040F0000000000000000000EF07FF1F7F3E1F3C94
:104100001F7C1F7C1F781F781F781F7C1F7C3F3C03
:104110007F3EFF1FDF0F1E001E001E007C38F83F91
:10412000003C003C003C003C003C003CFC3DFE3FB1
:104130009E3F1F3F1F3E1F3C1F3C1F3C1F3C1F3C20
:104140001F3C1F3C1F3C1F3C1F3C000000000000A8
:1041500000000000F001F00100000000000000007D
:10416000E07FE07FE001E001E001E001E001E0014B
:10417000E001E001E001E001E001E001E001000018
:104180000000000000000000F800F800000000003F
:1041900000000000F83FF83FF800F800F800F800D1
:1041A000F800F800F800F800F800F800F800F8004F
:1041B000F800F800F800F000F071E07F003C003CEF
:1041C000003C003C003C003C1F3C3E3C7C3CF83C3E
:1041D000F03DE03DC03FC03FE03FF03DF83C7C3C5F
:1041E0003E3C1F3C1F3C000000000000000000009F
:1041F000F07FF001F001F001F001F001F001F001B9
:10420000F001F001F001F001F001F001F001F00126
:10421000F001F001F001F001F001000000000000E9
:10422000000000000000000000000000000000008E
:104230009EF7FFFFFFFFFFFFE7FBE7F9C7F1C7F1BD
:10424000C7F1C7F1C7F1C7F1C7F1C7F1C7F1000066
:10425000000000000000000000000000000000005E
:1042600000000000FC3DFE3F9E3F1F3F1F3E1F3CE5
:104270001F3C1F3C1F3C1F3C1F3C1F3C1F3C1F3C66
:104280001F3C0000000000000000000000000000D3
:104290000000000000000000F007FC1F3E3E1F3C35
:1042A0001F7C0F780F780F780F780F781F7C1F3CDA
:1042B0003E3EFC1FF0070000000000000000000070
:1042C000000000000000000000000000F83DFE3F7C
:1042D0003E3F1F3E0F3C0F3C0F3C0F3C0F3C0F3C42
:1042E0001F3C1E3E3E3FFC3FF83F003C003C003C74
:1042F000003C003C00000000000000000000000046
:10430000EE07FE1F7E3E1E3C1E7C1E781E781E7829
:104310001E781E781E7C3E7C7E3EFE1FDE0F1E0039
:104320001E001E001E001E00000000000000000015
:10433000000000007F1FFF1FE71FC71F871F001F10
:10434000001F001F001F001F001F001F001F001F75
:10435000001F00000000000000000000000000003E
:104360000000000000000000FC07FE1F0E1E003EC3
:10437000003E003FE01FFC07FE003E001E001E0046
:104380003E3CFC3FF01F0000000000000000000069
:10439000000000000000800780078007FF7FFF7F8C
:1043A00080078007800780078007800780078007D5
:1043B00080078007C007FF03FF0100000000000026
:1043C00000000000000000000000000000000000ED
:1043D0001E3C1E3C1E3C1E3C1E3C1E3C1E3C1E3C0D
:1043E0001E3C1E3C3E3C7E3CFE3EFE1FDE0F00009F
:1043F00000000000000000000000000000000000BD
:104400000000000007F00F780F781E3C1E3C1E3E97
:104410003C1E3C1E780F780FF00FF007F007E0030A
:10442000E0030000000000000000000000000000A9
:10443000000000000000000003F0E3F1E3F3E7F305
:10444000F7F3F7F3F77F777F7F7F7F7F7F7F3E3EB6
:104450003E3E3E3E3E3E00000000000000000000E8
:104460000000000000000000000000000F7C1E3E65
:104470003C3E3C1FF80FF007F007E003F007F80799
:10448000F80F7C1E3E3E1F3C1F780000000000001D
:10449000000000000000000000000000000000001C
:1044A00007F80F780F7C1E3C1E3C3C1E3C1E3C1F38
:1044B000780FF80FF007F007E003E003C003C00334
:1044C000C0038007800F007F000000000000000094
:1044D00000000000FF3FFF3F1F003E007C00F8008F
:1044E000F001E003C007800F001F001E003CFF7FAB
:1044F000FF7F00000000000000000000FE01E0035C
:10450000C003C003C003C003E001E001E001C0013B
:10451000C003803F803FC003C001E001E001E00133
:10452000C003C003C003C003E003FE017E0000001F
:10453000C001C001C001C001C001C001C001C00173
:10454000C001C001C001C001C001C001C001C00163
:10455000C001C001C001C001C001C001C001C00153
:10456000C0010000C03FE003E001E001E001E00124
:10457000C001C003C003C001E001FE00FE00E00175
:10458000C001C003C003C001E001E001E001E0019F
:10459000E003C03F003F00000000000000000000FA
:1045A0000000000000000000000000000000073FC5
:1045B000C77FE773FFF17EF00000000000000000FD
:1045C00000000000000000000000000000000000EB
:1045D00000000000000000000000000000000000DB
:1045E00000000000000000000000000000000000CB
:1045F0000000000C000C000C000C000C000C000C67
:10460000000C000C000C000C0000000C000C000062
:10461000000000000000001B001B001B001B001B13
:10462000000000000000000000000000000000008A
:1046300000000000000000000000801980198019AF
:104640008019C07FC07F80190033C07FC07F0033D6
:104650000033003300330000000000000000001EA3
:10466000003F807580650074003C001E00078005D7
:10467000806580658075003F001E00040004000016
:104680000000007000D840D8C0D880D90073000660
:10469000000C801BC036C066C046C0068003000008
:1046A000000000000000001E003F00330033003314
:1046B000001E000CC03CC066806380618063C03E09
:1046C000801C0000000000000000000C000C000C2A
:1046D000000C000C000000000000000000000000C2
:1046E0000000000000000000000000008000000149
:1046F0000003000600060004000C000C000C000C77
:10470000000C000C000400060006000300018000FD
:10471000002000100018000C000C00040006000629
:1047200000060006000600060004000C000C00183D
:10473000001000200000000C002D003F001E003380
:104740000000000000000000000000000000000069
:104750000000000000000000000000000000000C4D
:10476000000C000C000CC0FFC0FF000C000C000C83
:10477000000C00000000000000000000000000002D
:104780000000000000000000000000000000000029
:10479000000000000000000C000C000400040008F1
:1047A0000000000000000000000000000000000009
:1047B0000000001E001E00000000000000000000BD
:1047C00000000000000000000000000000000000E9
:1047D0000000000000000000000000000000000CCD
:1047E000000C0000000000000000000300030003B4
:1047F0000006000600060006000C000C000C000C71
:104800000018001800180000000000000000001E42
:10481000003F0033806180618061806D806D8061C8
:10482000806180610033003F001E00000000000036
:1048300000000006000E001E0036002600060006DE
:10484000000600060006000600060006000600003E
:10485000000000000000001E003F80738061806146
:10486000800100030006000C001800300060807F0B
:10487000807F0000000000000000001C003E00637C
:1048800000630003000E000E0003800180018061C0
:104890008073003F001E00000000000000000006C2
:1048A000000E000E001E001E0016003600360066C8
:1048B000807F807F000600060006000000000000E8
:1048C0000000007F007F006000600060006E007FDD
:1048D00080638001800180618073003F001E0000C2
:1048E000000000000000001E003F80338061006077
:1048F000006E007F80738061806180618033003F43
:10490000001E0000000000000000807F807F80010A
:104910000003000300060006000C000C000C000859
:104920000018001800180000000000000000001E21
:10493000003F8063806180610021001E003F806134
:10494000806180618061003F001E00000000000067
:104950000000001E003F00738061806180618073F1
:10496000803F801D800180610073003F001E0000B9
:104970000000000000000000000000000000000C2B
:10498000000C000000000000000000000000000C0F
:10499000000C00000000000000000000000000000B
:1049A00000000000000C000C0000000000000000EF
:1049B0000000000C000C00040004000800000000CF
:1049C0000000000080008003000E00380060003806
:1049D000000E8003800000000000000000000000C6
:1049E00000000000000000000000807F807F0000C9
:1049F0000000807F807F00000000000000000000B9
:104A000000000000000000000000000000400070F6
:104A1000001C000780010007001C0070004000001F
:104A200000000000000000000000001F803FC07177
:104A3000C060C000C00180030007000E000C000C25
:104A40000000000C000C0000000000000000001E30
:104A5000003F803180718063806F806D806D806FDA
:104A6000806700600032003E001C00000000000073
:104A70000000000E000E001B001B001B001B8031FD
:104A80008031803F803F8031C060C060C0600000E6
:104A9000000000000000007C007E006300630063F3
:104AA0000063007E007E0063806180618063007F20
:104AB000007E0000000000000000001E003F80316A
:104AC00080610060006000600060006000608061E4
:104AD0008031003F001E0000000000000000007C4C
:104AE000007F00638063806180618061806180619C
:104AF000806100630063007E007C00000000000015
:104B00000000807F807F0060006000600060007FA8
:104B1000007F0060006000600060807F807F000098
:104B2000000000000000807F807F00600060006067
:104B30000060007F007F0060006000600060006037
:104B400000600000000000000000001E003F8031F7
:104B500080610060006000608063806380618061CC
:104B60008031803F001E00000000000000008061D6
:104B700080618061806180618061807F807F8061F1
:104B800080618061806180618061000000000000C0
:104B90000000003F003F000C000C000C000C000C5B
:104BA000000C000C000C000C000C003F003F00004B
:104BB0000000000000008001800180018001800170
:104BC0008001800180018001806180618073003FED
:104BD000001E0000000000000000C0608061006353
:104BE00000660066006C0078007C0066006600636A
:104BF00080618061C0600000000000000000006073
:104C000000600060006000600060006000600060A4
:104C1000006000600060807F807F00000000000076
:104C20000000C071C071C07BC07AC06AC06AC06E2B
:104C3000C064C060C060C060C060C060C060000090
:104C40000000000000008071807180798079807997
:104C5000806D806D806D8065806780678067806310
:104C600080630000000000000000001E003F0033D1
:104C7000806180618061806180618061806180612C
:104C80000033003F001E0000000000000000007E16
:104C9000007F80638061806180618063007F007E2F
:104CA0000060006000600060006000000000000024
:104CB0000000001E003F00338061806180618061E0
:104CC00080618061806580670033803F401E000006
:104CD000000000000000007E007F80638061806132
:104CE0008063007F007E00660063006380618061F6
:104CF000C0600000000000000000000E001F8031B6
:104D0000803100300038001E000780038061806120
:104D10008031003F001E0000000000000000C0FFC6
:104D2000C0FF000C000C000C000C000C000C000C70
:104D3000000C000C000C000C000C00000000000037
:104D4000000080618061806180618061806180613C
:104D500080618061806180618073003F001E00007F
:104D6000000000000000C060C060C0608031803181
:104D70008031001B001B001B001B000E000E000EEC
:104D800000040000000000000000C0C0C0C0C0C09F
:104D9000C0C0C0C0C0CC804C804C805E805280526D
:104DA0008073806180610000000000000000C0C0CE
:104DB000806080610033003B001E000C000C001E70
:104DC000001F003B80718061C0C000000000000037
:104DD0000000C0C08061806100330033001E001EEF
:104DE000000C000C000C000C000C000C000C00006F
:104DF000000000000000803F803F800100030003AE
:104E00000006000C000C0018001800300060807FC5
:104E1000807F000000000000000F000F000C000C5D
:104E2000000C000C000C000C000C000C000C000C22
:104E3000000C000C000C000C000F000F000000180C
:104E400000180018000C000C000C000C00060006F6
:104E5000000600060003000300030000000000003D
:104E6000001E001E000600060006000600060006E2
:104E70000006000600060006000600060006000602
:104E8000001E001E0000000C000C001E001200336B
:104E9000003380618061000000000000000000001D
:104EA0000000000000000000000000000000000002
:104EB00000000000000000000000000000000000F2
:104EC0000000000000000000E0FF000000000038CB
:104ED0000018000C000000000000000000000000AE
:104EE00000000000000000000000000000000000C2
:104EF00000000000000000000000001F803F8061F3
:104F00008001801F803F80618063807FC038000007
:104F10000000000000000060006000600060006EA3
:104F2000007F807380618061806180618073007F19
:104F3000006E000000000000000000000000000003
:104F40000000001E003F807380610060006080618F
:104F50008073003F001E0000000000000000800180
:104F6000800180018001801D803F807380618061AD
:104F7000806180618073803F801D00000000000020
:104F800000000000000000000000001E003F007351
:104F90008061807F807F00608071003F001E000084
:104FA000000000000000C007C00F000C000C807F54
:104FB000807F000C000C000C000C000C000C000C9E
:104FC000000C0000000000000000000000000000D5
:104FD000801D803F8073806180618061806180730B
:104FE000803F801D80018063007F003E00000060E4
:104FF000006000600060006F807F80718061806170
:10500000806180618061806180610000000000003B
:1050100000000006000600000000003E003E000602
:105020000006000600060006000600060006000056
:10503000000000000006000600000000003E003EE8
:105040000006000600060006000600060006000630
:1050500000060046007E003C00000060006000602A
:105060000060806100630066006C007C0076006375
:1050700000638061C0600000000000000000003E8E
:10508000003E0006000600060006000600060006B8
:1050900000060006000600060006000000000000F2
:1050A0000000000000000000000080DDC0FFC0CE56
:1050B000C0CCC0CCC0CCC0CCC0CCC0CCC0CC00001C
:1050C0000000000000000000000000000000006F71
:1050D000807F80718061806180618061806180619A
:1050E00080610000000000000000000000000000DF
:1050F0000000001E003F80738061806180618061DC
:105100008073003F001E000000000000000000004F
:1051100000000000006E007F80738061806180610C
:1051200080618073007F006E00600060006000603E
:105130000000000000000000801D803F807380613F
:105140008061806180618073803F801D800180016B
:1051500080018001000000000000000000000067E6
:10516000803F003900300030003000300030003027
:1051700000300000000000000000000000000000FF
:105180000000001E803F80610060007F803F800142
:105190008061007F001E0000000000000000000091
:1051A000000800180018007F007F00180018001881
:1051B000001800180018801F800F00000000000079
:1051C000000000000000000000008061806180613C
:1051D00080618061806180618063807F803D0000AC
:1051E0000000000000000000000000000000C0609F
:1051F000803180318031001B001B001B000E000E2F
:105200000006000000000000000000000000000098
:10521000000080DD80DD80DD005500550055007701
:1052200000770022002200000000000000000000C3
:10523000000000000000806100330033001E000CFD
:10524000000C001E003300338061000000000000ED
:1052500000000000000000008061806180310033A8
:105260000033001B001B001B000E000E000E001C74
:10527000007C007000000000000000000000C07F03
:10528000C07F800100030006000C00180030C07FC2
:10529000C07F0000000000008003800700060006B9
:1052A000000600060006000E001C001C000E000692
:1052B00000060006000600068007800300060006C0
:1052C00000060006000600060006000600060006AE
:1052D000000600060006000600060006000600069E
:1052E0000038003C000C000C000C000C000C000E00
:1052F00000070007000E000C000C000C000C000C56
:10530000003C003800000000000000000000000029
:1053100000008038807F004700000000000000008F
:10532000000000000000000000000000000000007D
:10533000000000000000000000000000001000104D
:10534000001000100010001000000010000000000D
:1053500000280028002800000000000000000000D5
:105360000000000000240024007C00240048007C91
:105370000048004800000000003800540050003889
:1053800000140054005400380010000000200054A5
:1053900000580030002800540014000800000000ED
:1053A0000010002800280010003400480048003495
:1053B00000000000001000100010000000000000BD
:1053C0000000000000000000000800100020002085
:1053D0000020002000200020001000080020001005
:1053E000000800080008000800080008001000205D
:1053F000001000380010002800000000000000002D
:10540000000000000000000000100010007C0010F0
:10541000001000000000000000000000000000007C
:10542000000000000000001000100010000000004C
:105430000000000000000038000000000000000034
:10544000000000000000000000000000000000104C
:1054500000000000000800080010001000100010FC
:1054600000200020000000000038004400440054E8
:1054700000440044004400380000000000100030E8
:10548000005000100010001000100010000000007C
:105490000038004400440004000800100020007C94
:1054A000000000000038004400040018000400045C
:1054B0000044003800000000000800180028002800
:1054C0000048007C0008000800000000007C00404C
:1054D0000040007800040004004400380000000090
:1054E0000038004400400078004400440044003884
:1054F00000000000007C00040008001000100020E4
:105500000020002000000000003800440044003863
:10551000004400440044003800000000003800440B
:1055200000440044003C0004004400380000000037
:10553000000000000010000000000000000000104B
:10554000000000000000000000000010000000004B
:10555000000000100010001000000000000C0030DF
:1055600000400030000C00000000000000000000BF
:105570000000007C0000007C000000000000000033
:105580000000000000600018000400180060000027
:105590000000000000380044000400080010001063
:1055A000000000100000000000380044004C0054CF
:1055B000005C00400040003800000000001000289F
:1055C000002800280028007C00440044000000005F
:1055D000007800440044007800440044004400780F
:1055E000000000000038004400400040004000403F
:1055F00000440038000000000070004800440044EF
:10560000004400440048007000000000007C00409E
:105610000040007C004000400040007C0000000092
:10562000007C004000400078004000400040004006
:10563000000000000038004400400040005C0044CE
:105640000044003800000000004400440044007C96
:1056500000440044004400440000000000380010F2
:1056600000100010001000100010003800000000B2
:105670000004000400040004000400040044003896
:105680000000000000440048005000600050004846
:10569000004800440000000000400040004000407E
:1056A000004000400040007C000000000044006C0E
:1056B000006C00540044004400440044000000001A
:1056C00000440064006400540054004C004C00444A
:1056D000000000000038004400440044004400443E
:1056E00000440038000000000078004400440044FA
:1056F00000780040004000400000000000380044F6
:1057000000440044004400440054003800040000F9
:1057100000780044004400440078004800480044F9
:105720000000000000380044004000300008000481
:105730000044003800000000007C00100010001041
:105740000010001000100010000000000044004491
:1057500000440044004400440044003800000000BD
:1057600000440044004400280028002800100010D5
:105770000000000000440044005400540054006C39
:105780000028002800000000004400280028001025
:1057900000100028002800440000000000440044DD
:1057A0000028002800100010001000100000000069
:1057B000007C000400080010001000200040007C65
:1057C0000000000000180010001000100010001071
:1057D0000010001000100018002000200010001021
:1057E0000010001000080008000000000030001049
:1057F0000010001000100010001000100010003009
:1058000000100028002800440000000000000000F4
:105810000000000000000000000000000000000088
:1058200000000000000000FE00200010000000004A
:105830000000000000000000000000000000000068
:1058400000380044003C0044004C003400000000DC
:1058500000400040005800640044004400640058C8
:10586000000000000000000000380044004000403C
:105870000044003800000000000400040034004C24
:1058800000440044004C0034000000000000000010
:1058900000380044007C0040004400380000000054
:1058A000000C0010007C0010001000100010001010
:1058B00000000000000000000034004C00440044E0
:1058C000004C0034000400780040004000580064A0
:1058D00000440044004400440000000000100000A8
:1058E00000700010001000100010001000000000F8
:1058F00000100000007000100010001000100010D8
:10590000001000E0004000400048005000600050DF
:10591000004800440000000000700010001000105B
:105920000010001000100010000000000000000037
:10593000007800540054005400540054000000004B
:10594000000000000058006400440044004400448B
:105950000000000000000000003800440044004443
:1059600000440038000000000000000000580064FF
:105970000044004400640058004000400000000063
:105980000034004C00440044004C00340004000487
:10599000000000000058006400400040004000404B
:1059A0000000000000000000003800440030000843
:1059B0000044003800000000002000200078002093
:1059C000002000200020001800000000000000005F
:1059D0000044004400440044004C00340000000037
:1059E00000000000004400440028002800280010A7
:1059F0000000000000000000005400540054006C3F
:105A000000280028000000000000000000440028DA
:105A100000100010002800440000000000000000FA
:105A2000004400440028002800100010001000600E
:105A300000000000007C0008001000200040007CF6
:105A400000000000001800100010001000200020CE
:105A500000100010001000180010001000100010BE
:105A60000010001000100010001000100030001096
:105A70000010001000080008001000100010003096
:105A80000000000000000074004C00000000000056
:105A90000000000043000000400000206F76373611
:105AA000373020636D6F7320736574310000000020
:105AB0006F763736373020636D6F732073657400EF
:105AC0004E434B5520656D626564646564203230D9
:045AD000313500006C
